{
  "_format": "hh-sol-artifact-1",
  "contractName": "SocialNetwork",
  "sourceName": "contracts/SocialNetwork.sol",
  "abi": [
    {
      "inputs": [],
      "stateMutability": "nonpayable",
      "type": "constructor"
    },
    {
      "anonymous": false,
      "inputs": [
        {
          "indexed": true,
          "internalType": "address",
          "name": "commenter",
          "type": "address"
        },
        {
          "indexed": false,
          "internalType": "uint256",
          "name": "postID",
          "type": "uint256"
        },
        {
          "indexed": false,
          "internalType": "string",
          "name": "comment",
          "type": "string"
        }
      ],
      "name": "CommentAdded",
      "type": "event"
    },
    {
      "anonymous": false,
      "inputs": [
        {
          "indexed": true,
          "internalType": "address",
          "name": "owner",
          "type": "address"
        },
        {
          "indexed": false,
          "internalType": "uint256",
          "name": "amount",
          "type": "uint256"
        },
        {
          "indexed": false,
          "internalType": "uint256",
          "name": "timestamp",
          "type": "uint256"
        }
      ],
      "name": "EtherWithdrawn",
      "type": "event"
    },
    {
      "anonymous": false,
      "inputs": [
        {
          "indexed": true,
          "internalType": "address",
          "name": "follower",
          "type": "address"
        },
        {
          "indexed": true,
          "internalType": "address",
          "name": "following",
          "type": "address"
        }
      ],
      "name": "Followed",
      "type": "event"
    },
    {
      "anonymous": false,
      "inputs": [
        {
          "indexed": true,
          "internalType": "address",
          "name": "sender",
          "type": "address"
        },
        {
          "indexed": true,
          "internalType": "address",
          "name": "recipient",
          "type": "address"
        },
        {
          "indexed": false,
          "internalType": "string",
          "name": "message",
          "type": "string"
        }
      ],
      "name": "MessageSent",
      "type": "event"
    },
    {
      "anonymous": false,
      "inputs": [
        {
          "indexed": true,
          "internalType": "address",
          "name": "author",
          "type": "address"
        },
        {
          "indexed": false,
          "internalType": "uint256",
          "name": "postID",
          "type": "uint256"
        },
        {
          "indexed": false,
          "internalType": "string",
          "name": "postType",
          "type": "string"
        }
      ],
      "name": "PostCreated",
      "type": "event"
    },
    {
      "anonymous": false,
      "inputs": [
        {
          "indexed": true,
          "internalType": "address",
          "name": "author",
          "type": "address"
        },
        {
          "indexed": false,
          "internalType": "uint256",
          "name": "postID",
          "type": "uint256"
        }
      ],
      "name": "PostDeleted",
      "type": "event"
    },
    {
      "anonymous": false,
      "inputs": [
        {
          "indexed": true,
          "internalType": "address",
          "name": "editor",
          "type": "address"
        },
        {
          "indexed": false,
          "internalType": "uint256",
          "name": "postID",
          "type": "uint256"
        },
        {
          "indexed": false,
          "internalType": "string",
          "name": "newDescription",
          "type": "string"
        }
      ],
      "name": "PostEdited",
      "type": "event"
    },
    {
      "anonymous": false,
      "inputs": [
        {
          "indexed": true,
          "internalType": "address",
          "name": "liker",
          "type": "address"
        },
        {
          "indexed": false,
          "internalType": "uint256",
          "name": "postID",
          "type": "uint256"
        }
      ],
      "name": "PostLiked",
      "type": "event"
    },
    {
      "anonymous": false,
      "inputs": [
        {
          "indexed": true,
          "internalType": "address",
          "name": "unliker",
          "type": "address"
        },
        {
          "indexed": false,
          "internalType": "uint256",
          "name": "postID",
          "type": "uint256"
        }
      ],
      "name": "PostUnliked",
      "type": "event"
    },
    {
      "anonymous": false,
      "inputs": [
        {
          "indexed": true,
          "internalType": "address",
          "name": "user",
          "type": "address"
        },
        {
          "indexed": false,
          "internalType": "string",
          "name": "name",
          "type": "string"
        },
        {
          "indexed": false,
          "internalType": "uint256",
          "name": "userID",
          "type": "uint256"
        }
      ],
      "name": "ProfileCreated",
      "type": "event"
    },
    {
      "anonymous": false,
      "inputs": [
        {
          "indexed": true,
          "internalType": "address",
          "name": "follower",
          "type": "address"
        },
        {
          "indexed": true,
          "internalType": "address",
          "name": "following",
          "type": "address"
        }
      ],
      "name": "Unfollowed",
      "type": "event"
    },
    {
      "inputs": [],
      "name": "_postID",
      "outputs": [
        {
          "internalType": "uint256",
          "name": "",
          "type": "uint256"
        }
      ],
      "stateMutability": "view",
      "type": "function"
    },
    {
      "inputs": [],
      "name": "_userID",
      "outputs": [
        {
          "internalType": "uint256",
          "name": "",
          "type": "uint256"
        }
      ],
      "stateMutability": "view",
      "type": "function"
    },
    {
      "inputs": [
        {
          "internalType": "string",
          "name": "_comment",
          "type": "string"
        },
        {
          "internalType": "uint256",
          "name": "_postID",
          "type": "uint256"
        }
      ],
      "name": "addComment",
      "outputs": [],
      "stateMutability": "nonpayable",
      "type": "function"
    },
    {
      "inputs": [
        {
          "internalType": "string",
          "name": "_type",
          "type": "string"
        },
        {
          "internalType": "string",
          "name": "_description",
          "type": "string"
        },
        {
          "internalType": "string",
          "name": "_postURL",
          "type": "string"
        }
      ],
      "name": "createPost",
      "outputs": [],
      "stateMutability": "nonpayable",
      "type": "function"
    },
    {
      "inputs": [
        {
          "internalType": "string",
          "name": "_name",
          "type": "string"
        }
      ],
      "name": "createProfile",
      "outputs": [],
      "stateMutability": "nonpayable",
      "type": "function"
    },
    {
      "inputs": [
        {
          "internalType": "uint256",
          "name": "id",
          "type": "uint256"
        }
      ],
      "name": "deletePost",
      "outputs": [],
      "stateMutability": "nonpayable",
      "type": "function"
    },
    {
      "inputs": [
        {
          "internalType": "uint256",
          "name": "_postID",
          "type": "uint256"
        },
        {
          "internalType": "string",
          "name": "_description",
          "type": "string"
        }
      ],
      "name": "editPost",
      "outputs": [],
      "stateMutability": "nonpayable",
      "type": "function"
    },
    {
      "inputs": [
        {
          "internalType": "address",
          "name": "_address",
          "type": "address"
        }
      ],
      "name": "follow",
      "outputs": [],
      "stateMutability": "nonpayable",
      "type": "function"
    },
    {
      "inputs": [],
      "name": "getAddresses",
      "outputs": [
        {
          "internalType": "address[]",
          "name": "",
          "type": "address[]"
        }
      ],
      "stateMutability": "view",
      "type": "function"
    },
    {
      "inputs": [],
      "name": "getAllAppUser",
      "outputs": [
        {
          "components": [
            {
              "internalType": "address",
              "name": "owner",
              "type": "address"
            },
            {
              "internalType": "string",
              "name": "name",
              "type": "string"
            },
            {
              "internalType": "uint256",
              "name": "timeCreated",
              "type": "uint256"
            },
            {
              "internalType": "uint256",
              "name": "id",
              "type": "uint256"
            },
            {
              "internalType": "uint256",
              "name": "postCount",
              "type": "uint256"
            },
            {
              "internalType": "uint256",
              "name": "followerCount",
              "type": "uint256"
            },
            {
              "internalType": "uint256",
              "name": "followingCount",
              "type": "uint256"
            }
          ],
          "internalType": "struct SocialNetwork.AllUserStruck[]",
          "name": "",
          "type": "tuple[]"
        }
      ],
      "stateMutability": "view",
      "type": "function"
    },
    {
      "inputs": [],
      "name": "getAllPosts",
      "outputs": [
        {
          "components": [
            {
              "internalType": "address",
              "name": "author",
              "type": "address"
            },
            {
              "internalType": "string",
              "name": "postType",
              "type": "string"
            },
            {
              "internalType": "string",
              "name": "postDescription",
              "type": "string"
            },
            {
              "internalType": "string",
              "name": "postURL",
              "type": "string"
            },
            {
              "internalType": "uint256",
              "name": "timeCreated",
              "type": "uint256"
            },
            {
              "internalType": "uint256",
              "name": "postID",
              "type": "uint256"
            },
            {
              "internalType": "uint256",
              "name": "likes",
              "type": "uint256"
            },
            {
              "internalType": "string[]",
              "name": "comments",
              "type": "string[]"
            }
          ],
          "internalType": "struct SocialNetwork.Post[]",
          "name": "",
          "type": "tuple[]"
        }
      ],
      "stateMutability": "view",
      "type": "function"
    },
    {
      "inputs": [
        {
          "internalType": "address",
          "name": "_address",
          "type": "address"
        }
      ],
      "name": "getFollowers",
      "outputs": [
        {
          "internalType": "address[]",
          "name": "",
          "type": "address[]"
        }
      ],
      "stateMutability": "view",
      "type": "function"
    },
    {
      "inputs": [
        {
          "internalType": "address",
          "name": "_address",
          "type": "address"
        }
      ],
      "name": "getFollowing",
      "outputs": [
        {
          "internalType": "address[]",
          "name": "",
          "type": "address[]"
        }
      ],
      "stateMutability": "view",
      "type": "function"
    },
    {
      "inputs": [
        {
          "internalType": "address",
          "name": "_address",
          "type": "address"
        }
      ],
      "name": "getPosts",
      "outputs": [
        {
          "components": [
            {
              "internalType": "address",
              "name": "author",
              "type": "address"
            },
            {
              "internalType": "string",
              "name": "postType",
              "type": "string"
            },
            {
              "internalType": "string",
              "name": "postDescription",
              "type": "string"
            },
            {
              "internalType": "string",
              "name": "postURL",
              "type": "string"
            },
            {
              "internalType": "uint256",
              "name": "timeCreated",
              "type": "uint256"
            },
            {
              "internalType": "uint256",
              "name": "postID",
              "type": "uint256"
            },
            {
              "internalType": "uint256",
              "name": "likes",
              "type": "uint256"
            },
            {
              "internalType": "string[]",
              "name": "comments",
              "type": "string[]"
            }
          ],
          "internalType": "struct SocialNetwork.Post[]",
          "name": "",
          "type": "tuple[]"
        }
      ],
      "stateMutability": "view",
      "type": "function"
    },
    {
      "inputs": [
        {
          "internalType": "uint256",
          "name": "_postID",
          "type": "uint256"
        }
      ],
      "name": "getSinglePost",
      "outputs": [
        {
          "internalType": "address",
          "name": "",
          "type": "address"
        },
        {
          "internalType": "string",
          "name": "",
          "type": "string"
        },
        {
          "internalType": "string",
          "name": "",
          "type": "string"
        },
        {
          "internalType": "string",
          "name": "",
          "type": "string"
        },
        {
          "internalType": "uint256",
          "name": "",
          "type": "uint256"
        },
        {
          "internalType": "uint256",
          "name": "",
          "type": "uint256"
        },
        {
          "internalType": "uint256",
          "name": "",
          "type": "uint256"
        },
        {
          "internalType": "string[]",
          "name": "",
          "type": "string[]"
        }
      ],
      "stateMutability": "view",
      "type": "function"
    },
    {
      "inputs": [],
      "name": "getUserCount",
      "outputs": [
        {
          "internalType": "uint256",
          "name": "",
          "type": "uint256"
        }
      ],
      "stateMutability": "view",
      "type": "function"
    },
    {
      "inputs": [
        {
          "internalType": "uint256",
          "name": "_postID",
          "type": "uint256"
        }
      ],
      "name": "likePost",
      "outputs": [],
      "stateMutability": "nonpayable",
      "type": "function"
    },
    {
      "inputs": [],
      "name": "owner",
      "outputs": [
        {
          "internalType": "address",
          "name": "",
          "type": "address"
        }
      ],
      "stateMutability": "view",
      "type": "function"
    },
    {
      "inputs": [
        {
          "internalType": "address",
          "name": "",
          "type": "address"
        }
      ],
      "name": "profiles",
      "outputs": [
        {
          "internalType": "address",
          "name": "owner",
          "type": "address"
        },
        {
          "internalType": "string",
          "name": "name",
          "type": "string"
        },
        {
          "internalType": "uint256",
          "name": "timeCreated",
          "type": "uint256"
        },
        {
          "internalType": "uint256",
          "name": "id",
          "type": "uint256"
        },
        {
          "internalType": "uint256",
          "name": "postCount",
          "type": "uint256"
        },
        {
          "internalType": "uint256",
          "name": "followerCount",
          "type": "uint256"
        },
        {
          "internalType": "uint256",
          "name": "followingCount",
          "type": "uint256"
        }
      ],
      "stateMutability": "view",
      "type": "function"
    },
    {
      "inputs": [
        {
          "internalType": "address",
          "name": "friend_key",
          "type": "address"
        }
      ],
      "name": "readMessage",
      "outputs": [
        {
          "components": [
            {
              "internalType": "address",
              "name": "sender",
              "type": "address"
            },
            {
              "internalType": "uint256",
              "name": "timestamp",
              "type": "uint256"
            },
            {
              "internalType": "string",
              "name": "msg",
              "type": "string"
            }
          ],
          "internalType": "struct SocialNetwork.message[]",
          "name": "",
          "type": "tuple[]"
        }
      ],
      "stateMutability": "view",
      "type": "function"
    },
    {
      "inputs": [
        {
          "internalType": "address",
          "name": "friend_key",
          "type": "address"
        },
        {
          "internalType": "string",
          "name": "_msg",
          "type": "string"
        }
      ],
      "name": "sendMessage",
      "outputs": [],
      "stateMutability": "nonpayable",
      "type": "function"
    },
    {
      "inputs": [
        {
          "internalType": "address",
          "name": "_address",
          "type": "address"
        }
      ],
      "name": "unfollow",
      "outputs": [],
      "stateMutability": "nonpayable",
      "type": "function"
    },
    {
      "inputs": [
        {
          "internalType": "uint256",
          "name": "_postID",
          "type": "uint256"
        }
      ],
      "name": "unlikePost",
      "outputs": [],
      "stateMutability": "nonpayable",
      "type": "function"
    },
    {
      "inputs": [],
      "name": "withdrawEther",
      "outputs": [],
      "stateMutability": "nonpayable",
      "type": "function"
    },
    {
      "stateMutability": "payable",
      "type": "receive"
    }
  ],
  "bytecode": "0x608060405234801561001057600080fd5b50600080546001600160a01b03191633179055614100806100326000396000f3fe60806040526004361061014f5760003560e01c8063a24d41de116100b6578063d8236dff1161006f578063d8236dff146103e6578063de6f24bb14610406578063e8a4a1eb14610426578063eea3ae9114610446578063fa188de91461045c578063fa99654a1461047c57600080fd5b8063a24d41de14610306578063a39fac1214610328578063b5cb15f71461034a578063b86e6f091461035f578063bbe1562714610393578063c2fe2022146103c657600080fd5b80634dbf27cc116101085780634dbf27cc14610235578063725009d3146102555780637362377b146102755780638865fb751461028a5780638da5cb5b146102ae57806396a3d8d7146102e657600080fd5b8063015a4ead1461015b578063094cd5ee1461017d578063255e9c111461019d57806330561100146101d3578063334c3f0e146101f55780634caf9d0b1461021557600080fd5b3661015657005b600080fd5b34801561016757600080fd5b5061017b6101763660046135af565b61049c565b005b34801561018957600080fd5b5061017b6101983660046135d1565b6108e4565b3480156101a957600080fd5b506101bd6101b83660046135af565b610a84565b6040516101ca9190613630565b60405180910390f35b3480156101df57600080fd5b506101e8610bb7565b6040516101ca9190613710565b34801561020157600080fd5b5061017b61021036600461383c565b611099565b34801561022157600080fd5b506101e86102303660046135af565b611582565b34801561024157600080fd5b5061017b6102503660046135af565b6118ed565b34801561026157600080fd5b5061017b6102703660046135d1565b611c56565b34801561028157600080fd5b5061017b611e16565b34801561029657600080fd5b506102a060085481565b6040519081526020016101ca565b3480156102ba57600080fd5b506000546102ce906001600160a01b031681565b6040516001600160a01b0390911681526020016101ca565b3480156102f257600080fd5b5061017b61030136600461387e565b611fb5565b34801561031257600080fd5b5061031b61215f565b6040516101ca91906138ca565b34801561033457600080fd5b5061033d612298565b6040516101ca9190613970565b34801561035657600080fd5b506001546102a0565b34801561036b57600080fd5b5061037f61037a3660046135d1565b6122fa565b6040516101ca9897969594939291906139bd565b34801561039f57600080fd5b506103b36103ae3660046135af565b612987565b6040516101ca9796959493929190613a84565b3480156103d257600080fd5b5061033d6103e13660046135af565b612a54565b3480156103f257600080fd5b5061033d6104013660046135af565b612b08565b34801561041257600080fd5b5061017b610421366004613ad2565b612b81565b34801561043257600080fd5b5061017b610441366004613b25565b612ca9565b34801561045257600080fd5b506102a060075481565b34801561046857600080fd5b5061017b6104773660046135d1565b612fd4565b34801561048857600080fd5b5061017b610497366004613bbf565b613190565b336000908152600360205260409020546001600160a01b03166104da5760405162461bcd60e51b81526004016104d190613bf2565b60405180910390fd5b6001600160a01b038082166000908152600360205260409020548291166105135760405162461bcd60e51b81526004016104d190613c47565b816001600160a01b038116330361053c5760405162461bcd60e51b81526004016104d190613c7e565b3360009081526005602090815260408083206001600160a01b038781168552925290912054166105c65760405162461bcd60e51b815260206004820152602f60248201527f4552524f523a203c596f7520616c726561647920646f206e6f7420666f6c6c6f60448201526e3b903a3434b990383937b334b6329f60891b60648201526084016104d1565b6001600160a01b0383166000908152600460209081526040808320338452909152812080546001600160a01b03191681559061060560018301826133f1565b6002820160009055600382016000905560048201600090556005820160009055600682016000905560078201600061063d919061342e565b61064b60088301600061342e565b50503360009081526005602090815260408083206001600160a01b0387168452909152812080546001600160a01b03191681559061068c60018301826133f1565b600282016000905560038201600090556004820160009055600582016000905560068201600090556007820160006106c4919061342e565b6106d260088301600061342e565b505060005b6001600160a01b0384166000908152600360205260409020600501548110156107cb576001600160a01b038416600090815260036020526040902060070180543391908390811061072a5761072a613cc8565b6000918252602090912001546001600160a01b0316036107b9576001600160a01b038416600090815260036020526040902060070180548290811061077157610771613cc8565b6000918252602080832090910180546001600160a01b03191690556001600160a01b038616825260039052604081206005018054916107af83613cf4565b91905055506107cb565b806107c381613d0b565b9150506106d7565b5060005b336000908152600360205260409020600601548110156108a85733600090815260036020526040902060080180546001600160a01b03861691908390811061081957610819613cc8565b6000918252602090912001546001600160a01b0316036108965733600090815260036020526040902060080180548290811061085757610857613cc8565b6000918252602080832090910180546001600160a01b0319169055338252600390526040812060060180549161088c83613cf4565b91905055506108a8565b806108a081613d0b565b9150506107cf565b506040516001600160a01b0384169033907f25b48012798806863072289354ed0b3849b73152482d9c6694e5cbb35f38d5e390600090a3505050565b336000908152600360205260409020546001600160a01b03166109195760405162461bcd60e51b81526004016104d190613bf2565b33600090815260066020526040812080548390811061093a5761093a613cc8565b60009182526020909120600890910201546001600160a01b0316036109975760405162461bcd60e51b8152602060048201526013602482015272141bdcdd08191bd95cc81b9bdd08195e1a5cdd606a1b60448201526064016104d1565b3360009081526006602052604090208054829081106109b8576109b8613cc8565b60009182526020822060089091020180546001600160a01b0319168155906109e360018301826133f1565b6109f16002830160006133f1565b6109ff6003830160006133f1565b600482016000905560058201600090556006820160009055600782016000610a27919061344c565b5050336000908152600360205260408120600401805491610a4783613cf4565b909155505060405181815233907f4d420356f0bcdde64a4a4dd5ececb57087c4119cf2d72bb1d76e329d38f3c2199060200160405180910390a250565b60606000610a92338461335a565b905060096000828152602001908152602001600020805480602002602001604051908101604052809291908181526020016000905b82821015610bab576000848152602090819020604080516060810182526003860290920180546001600160a01b0316835260018101549383019390935260028301805492939291840191610b1a90613d24565b80601f0160208091040260200160405190810160405280929190818152602001828054610b4690613d24565b8015610b935780601f10610b6857610100808354040283529160200191610b93565b820191906000526020600020905b815481529060010190602001808311610b7657829003601f168201915b50505050508152505081526020019060010190610ac7565b50505050915050919050565b60606000805b600154811015610c21576006600060018381548110610bde57610bde613cc8565b60009182526020808320909101546001600160a01b03168352820192909252604001902054610c0d9083613d58565b915080610c1981613d0b565b915050610bbd565b5060008167ffffffffffffffff811115610c3d57610c3d613d6b565b604051908082528060200260200182016040528015610cbf57816020015b610cac60405180610100016040528060006001600160a01b03168152602001606081526020016060815260200160608152602001600081526020016000815260200160008152602001606081525090565b815260200190600190039081610c5b5790505b5090506000805b6001548110156110905760005b6006600060018481548110610cea57610cea613cc8565b60009182526020808320909101546001600160a01b0316835282019290925260400190205481101561107d576006600060018481548110610d2d57610d2d613cc8565b60009182526020808320909101546001600160a01b031683528201929092526040019020805482908110610d6357610d63613cc8565b600091825260209182902060408051610100810190915260089092020180546001600160a01b031682526001810180549293919291840191610da490613d24565b80601f0160208091040260200160405190810160405280929190818152602001828054610dd090613d24565b8015610e1d5780601f10610df257610100808354040283529160200191610e1d565b820191906000526020600020905b815481529060010190602001808311610e0057829003601f168201915b50505050508152602001600282018054610e3690613d24565b80601f0160208091040260200160405190810160405280929190818152602001828054610e6290613d24565b8015610eaf5780601f10610e8457610100808354040283529160200191610eaf565b820191906000526020600020905b815481529060010190602001808311610e9257829003601f168201915b50505050508152602001600382018054610ec890613d24565b80601f0160208091040260200160405190810160405280929190818152602001828054610ef490613d24565b8015610f415780601f10610f1657610100808354040283529160200191610f41565b820191906000526020600020905b815481529060010190602001808311610f2457829003601f168201915b5050505050815260200160048201548152602001600582015481526020016006820154815260200160078201805480602002602001604051908101604052809291908181526020016000905b82821015611039578382906000526020600020018054610fac90613d24565b80601f0160208091040260200160405190810160405280929190818152602001828054610fd890613d24565b80156110255780601f10610ffa57610100808354040283529160200191611025565b820191906000526020600020905b81548152906001019060200180831161100857829003601f168201915b505050505081526020019060010190610f8d565b505050508152505084848151811061105357611053613cc8565b6020908102919091010152611069600184613d58565b92508061107581613d0b565b915050610cd3565b508061108881613d0b565b915050610cc6565b50909392505050565b60408051600081526020810180835281519020849284926110be918591859101613d81565b60405160208183030381529060405280519060200120036111215760405162461bcd60e51b815260206004820152601e60248201527f4552524f523a203c496e7075742063616e6e6f7420626520656d7074793e000060448201526064016104d1565b336000908152600360205260409020546001600160a01b03161561119b5760405162461bcd60e51b815260206004820152602b60248201527f4552524f523a203c596f75206861766520616c7265616479206372656174656460448201526a103090383937b334b6329f60a91b60648201526084016104d1565b60006001600160a01b0316600285856040516111b8929190613d81565b908152604051908190036020019020546001600160a01b03161461121e5760405162461bcd60e51b815260206004820152601760248201527f4552524f523a203c557365726e616d652074616b656e3e00000000000000000060448201526064016104d1565b6008805490600061122e83613d0b565b9091555050600854604051339060029061124b9088908890613d81565b908152602001604051809103902060006101000a8154816001600160a01b0302191690836001600160a01b03160217905550604051806101200160405280336001600160a01b0316815260200186868080601f016020809104026020016040519081016040528093929190818152602001838380828437600092018290525093855250504260208401525060408201849052606082018190526080820181905260a0820181905260c090910190604051908082528060200260200182016040528015611321578160200160208202803683370190505b5081526020016000604051908082528060200260200182016040528015611352578160200160208202803683370190505b509052336000908152600360209081526040909120825181546001600160a01b0319166001600160a01b039091161781559082015160018201906113969082613df5565b5060408201516002820155606082015160038201556080820151600482015560a0820151600582015560c0820151600682015560e082015180516113e491600784019160209091019061346a565b50610100820151805161140191600884019160209091019061346a565b50506001805480820182556000919091527fb10e2d527612073b26eecdfd717e6a320cf44b4afac2b0732d9fcbe2b7fa0cf60180546001600160a01b031916339081179091556040805160e08101825291825280516020601f8901819004810282018101909252878152600a9350828201918990899081908401838280828437600092018290525093855250504260208085019190915260408401879052606084018390526080840183905260a09093018290525083546001808201865594825290829020835160079092020180546001600160a01b0319166001600160a01b039092169190911781559082015191929091908201906115019082613df5565b5060408201518160020155606082015181600301556080820151816004015560a0820151816005015560c082015181600601555050336001600160a01b03167f25dbccf9f713a2b16ed5d635585b4778d0d7e66b7b631871e668a694131e5fad86868460405161157393929190613ed8565b60405180910390a25050505050565b6001600160a01b038082166000908152600360205260409020546060918391166115be5760405162461bcd60e51b81526004016104d190613c47565b6001600160a01b038316600090815260066020908152604080832080548251818502810185019093528083529193909284015b82821015610bab5760008481526020908190206040805161010081019091526008850290910180546001600160a01b03168252600181018054929391929184019161163b90613d24565b80601f016020809104026020016040519081016040528092919081815260200182805461166790613d24565b80156116b45780601f10611689576101008083540402835291602001916116b4565b820191906000526020600020905b81548152906001019060200180831161169757829003601f168201915b505050505081526020016002820180546116cd90613d24565b80601f01602080910402602001604051908101604052809291908181526020018280546116f990613d24565b80156117465780601f1061171b57610100808354040283529160200191611746565b820191906000526020600020905b81548152906001019060200180831161172957829003601f168201915b5050505050815260200160038201805461175f90613d24565b80601f016020809104026020016040519081016040528092919081815260200182805461178b90613d24565b80156117d85780601f106117ad576101008083540402835291602001916117d8565b820191906000526020600020905b8154815290600101906020018083116117bb57829003601f168201915b5050505050815260200160048201548152602001600582015481526020016006820154815260200160078201805480602002602001604051908101604052809291908181526020016000905b828210156118d057838290600052602060002001805461184390613d24565b80601f016020809104026020016040519081016040528092919081815260200182805461186f90613d24565b80156118bc5780601f10611891576101008083540402835291602001916118bc565b820191906000526020600020905b81548152906001019060200180831161189f57829003601f168201915b505050505081526020019060010190611824565b5050505081525050815260200190600101906115f1565b50919050565b336000908152600360205260409020546001600160a01b03166119225760405162461bcd60e51b81526004016104d190613bf2565b6001600160a01b0380821660009081526003602052604090205482911661195b5760405162461bcd60e51b81526004016104d190613c47565b816001600160a01b03811633036119845760405162461bcd60e51b81526004016104d190613c7e565b3360009081526005602090815260408083206001600160a01b0387811685529252909120541615611a085760405162461bcd60e51b815260206004820152602860248201527f4552524f523a203c596f7520616c726561647920666f6c6c6f77207468697320604482015267383937b334b6329f60c11b60648201526084016104d1565b3360008181526003602090815260408083206001600160a01b0388811685526004845282852095855294909252909120815481546001600160a01b031916931692909217825590600180820190611a6190840182613efc565b5060028201548160020155600382015481600301556004820154816004015560058201548160050155600682015481600601556007820181600701908054611aaa9291906134cf565b5060088281018054611abf92840191906134cf565b5050506001600160a01b03808416600081815260036020908152604080832033845260058352818420948452939091529020815481546001600160a01b031916931692909217825590600180820190611b1a90840182613efc565b5060028201548160020155600382015481600301556004820154816004015560058201548160050155600682015481600601556007820181600701908054611b639291906134cf565b5060088281018054611b7892840191906134cf565b5050506001600160a01b038316600081815260036020908152604080832060078101805460018082018355918652848620018054336001600160a01b031991821681179092559086529285206008018054918201815585529284209092018054909116841790559181526005909101805491611bf383613d0b565b9091555050336000908152600360205260408120600601805491611c1683613d0b565b90915550506040516001600160a01b0384169033907f6178e95c138f06036cdc07a49ed6a3d23008969fa143baeceb037ebae22e8d1490600090a3505050565b336000908152600360205260409020546001600160a01b0316611c8b5760405162461bcd60e51b81526004016104d190613bf2565b60005b600154811015611e125760005b6006600060018481548110611cb257611cb2613cc8565b60009182526020808320909101546001600160a01b03168352820192909252604001902054811015611dff57826006600060018581548110611cf657611cf6613cc8565b60009182526020808320909101546001600160a01b031683528201929092526040019020805483908110611d2c57611d2c613cc8565b90600052602060002090600802016005015403611ded576006600060018481548110611d5a57611d5a613cc8565b60009182526020808320909101546001600160a01b031683528201929092526040019020805482908110611d9057611d90613cc8565b600091825260208220600660089092020101805491611dae83613d0b565b909155505060405183815233907f62500381f39eb6f48b6e6f104021ceeaca9e5354918dc17b4a15bf87c5f5d28b9060200160405180910390a2611dff565b80611df781613d0b565b915050611c9b565b5080611e0a81613d0b565b915050611c8e565b5050565b6000546001600160a01b03163314611e825760405162461bcd60e51b815260206004820152602960248201527f4552524f523a204f6e6c79206f776e65722063616e20706572666f726d20746860448201526834b99030b1ba34b7b760b91b60648201526084016104d1565b4780611ed05760405162461bcd60e51b815260206004820152601b60248201527f4552524f523a204e6f20457468657220746f207769746864726177000000000060448201526064016104d1565b600080546040516001600160a01b039091169083908381818185875af1925050503d8060008114611f1d576040519150601f19603f3d011682016040523d82523d6000602084013e611f22565b606091505b5050905080611f6a5760405162461bcd60e51b81526020600482015260146024820152732330b4b632b2103a379039b2b7321022ba3432b960611b60448201526064016104d1565b600054604080518481524260208201526001600160a01b03909216917fd5ca65e1ec4f4864fea7b9c5cb1ec3087a0dbf9c74641db3f6458edf445c4051910160405180910390a25050565b60005b6001548110156121595760005b6006600060018481548110611fdc57611fdc613cc8565b60009182526020808320909101546001600160a01b031683528201929092526040019020548110156121465782600660006001858154811061202057612020613cc8565b60009182526020808320909101546001600160a01b03168352820192909252604001902080548390811061205657612056613cc8565b9060005260206000209060080201600501540361213457600660006001848154811061208457612084613cc8565b60009182526020808320909101546001600160a01b0316835282019290925260400190208054829081106120ba576120ba613cc8565b6000918252602080832060076008909302019190910180546001810182559083529120016120e9858783613fd1565b50336001600160a01b03167f6ef560d19dd02f57976e8453b811685a89edf49009d64ab71b19489923ef5f098487876040516121279392919061408b565b60405180910390a2612146565b8061213e81613d0b565b915050611fc5565b508061215181613d0b565b915050611fb8565b50505050565b6060600a805480602002602001604051908101604052809291908181526020016000905b8282101561228f5760008481526020908190206040805160e081019091526007850290910180546001600160a01b0316825260018101805492939192918401916121cc90613d24565b80601f01602080910402602001604051908101604052809291908181526020018280546121f890613d24565b80156122455780601f1061221a57610100808354040283529160200191612245565b820191906000526020600020905b81548152906001019060200180831161222857829003601f168201915b505050505081526020016002820154815260200160038201548152602001600482015481526020016005820154815260200160068201548152505081526020019060010190612183565b50505050905090565b606060018054806020026020016040519081016040528092919081815260200182805480156122f057602002820191906000526020600020905b81546001600160a01b031681526001909101906020018083116122d2575b5050505050905090565b600060608060606000806000606060005b60015481101561297a5760005b600660006001848154811061232f5761232f613cc8565b60009182526020808320909101546001600160a01b03168352820192909252604001902054811015612967578a600660006001858154811061237357612373613cc8565b60009182526020808320909101546001600160a01b0316835282019290925260400190208054839081106123a9576123a9613cc8565b906000526020600020906008020160050154036129555760066000600184815481106123d7576123d7613cc8565b60009182526020808320909101546001600160a01b03168352820192909252604001902080548290811061240d5761240d613cc8565b906000526020600020906008020160000160009054906101000a90046001600160a01b0316600660006001858154811061244957612449613cc8565b60009182526020808320909101546001600160a01b03168352820192909252604001902080548390811061247f5761247f613cc8565b906000526020600020906008020160010160066000600186815481106124a7576124a7613cc8565b60009182526020808320909101546001600160a01b0316835282019290925260400190208054849081106124dd576124dd613cc8565b9060005260206000209060080201600201600660006001878154811061250557612505613cc8565b60009182526020808320909101546001600160a01b03168352820192909252604001902080548590811061253b5761253b613cc8565b9060005260206000209060080201600301600660006001888154811061256357612563613cc8565b60009182526020808320909101546001600160a01b03168352820192909252604001902080548690811061259957612599613cc8565b90600052602060002090600802016004015460066000600189815481106125c2576125c2613cc8565b60009182526020808320909101546001600160a01b0316835282019290925260400190208054879081106125f8576125f8613cc8565b9060005260206000209060080201600501546006600060018a8154811061262157612621613cc8565b60009182526020808320909101546001600160a01b03168352820192909252604001902080548890811061265757612657613cc8565b9060005260206000209060080201600601546006600060018b8154811061268057612680613cc8565b60009182526020808320909101546001600160a01b0316835282019290925260400190208054899081106126b6576126b6613cc8565b90600052602060002090600802016007018680546126d390613d24565b80601f01602080910402602001604051908101604052809291908181526020018280546126ff90613d24565b801561274c5780601f106127215761010080835404028352916020019161274c565b820191906000526020600020905b81548152906001019060200180831161272f57829003601f168201915b5050505050965085805461275f90613d24565b80601f016020809104026020016040519081016040528092919081815260200182805461278b90613d24565b80156127d85780601f106127ad576101008083540402835291602001916127d8565b820191906000526020600020905b8154815290600101906020018083116127bb57829003601f168201915b505050505095508480546127eb90613d24565b80601f016020809104026020016040519081016040528092919081815260200182805461281790613d24565b80156128645780601f1061283957610100808354040283529160200191612864565b820191906000526020600020905b81548152906001019060200180831161284757829003601f168201915b5050505050945080805480602002602001604051908101604052809291908181526020016000905b828210156129385783829060005260206000200180546128ab90613d24565b80601f01602080910402602001604051908101604052809291908181526020018280546128d790613d24565b80156129245780601f106128f957610100808354040283529160200191612924565b820191906000526020600020905b81548152906001019060200180831161290757829003601f168201915b50505050508152602001906001019061288c565b50505050905099509950995099509950995099509950505061297c565b8061295f81613d0b565b915050612318565b508061297281613d0b565b91505061230b565b505b919395975091939597565b600360205260009081526040902080546001820180546001600160a01b0390921692916129b390613d24565b80601f01602080910402602001604051908101604052809291908181526020018280546129df90613d24565b8015612a2c5780601f10612a0157610100808354040283529160200191612a2c565b820191906000526020600020905b815481529060010190602001808311612a0f57829003601f168201915b5050505050908060020154908060030154908060040154908060050154908060060154905087565b6001600160a01b03808216600090815260036020526040902054606091839116612a905760405162461bcd60e51b81526004016104d190613c47565b6001600160a01b03831660009081526003602090815260409182902060070180548351818402810184019094528084529091830182828015612afb57602002820191906000526020600020905b81546001600160a01b03168152600190910190602001808311612add575b5050505050915050919050565b6001600160a01b038116600090815260036020908152604091829020600801805483518184028101840190945280845260609392830182828015612b7557602002820191906000526020600020905b81546001600160a01b03168152600190910190602001808311612b57575b50505050509050919050565b6000612b8d338561335a565b905060006040518060600160405280336001600160a01b0316815260200142815260200185858080601f016020809104026020016040519081016040528093929190818152602001838380828437600092018290525093909452505084815260096020908152604080832080546001808201835591855293839020865160039095020180546001600160a01b0319166001600160a01b03909516949094178455918501519183019190915583015192935083929091506002820190612c529082613df5565b505050846001600160a01b0316336001600160a01b03167fe2cf7446a11cbcd14cd99ea3a1bb77fb7653a64f4064d660140b5100d001e13c8686604051612c9a9291906140ae565b60405180910390a35050505050565b336000908152600360205260409020546001600160a01b0316612cde5760405162461bcd60e51b81526004016104d190613bf2565b6040805160008152602081018083528151902088928892612d03918591859101613d81565b6040516020818303038152906040528051906020012003612d665760405162461bcd60e51b815260206004820152601e60248201527f4552524f523a203c496e7075742063616e6e6f7420626520656d7074793e000060448201526064016104d1565b60078054906000612d7683613d0b565b9091555050600754604080516101008101825233815281516020601f8c018190048102820181019093528a815260009280830191908d908d9081908401838280828437600092019190915250505090825250604080516020601f8c018190048102820181019092528a815291810191908b908b9081908401838280828437600092019190915250505090825250604080516020601f8a018190048102820181019092528881529181019190899089908190840183828082843760009201829052509385525050426020840152506040820185905260608201819052608090910190604051908082528060200260200182016040528015612e8a57816020015b6060815260200190600190039081612e755790505b50905280516001600160a01b039081166000908152600660209081526040822080546001808201835591845292829020855160089094020180546001600160a01b03191693909416929092178355830151929350839290820190612eee9082613df5565b5060408201516002820190612f039082613df5565b5060608201516003820190612f189082613df5565b506080820151600482015560a0820151600582015560c0820151600682015560e08201518051612f5291600784019160209091019061350f565b505081516001600160a01b031660009081526003602052604081206004018054925090612f7e83613d0b565b9190505550336001600160a01b03167f12a6d6e360de92ee96444e397580fa39ca65f27c25bd78a4bad6278011334fac838c8c604051612fc09392919061408b565b60405180910390a250505050505050505050565b336000908152600360205260409020546001600160a01b03166130095760405162461bcd60e51b81526004016104d190613bf2565b60005b600154811015611e125760005b600660006001848154811061303057613030613cc8565b60009182526020808320909101546001600160a01b0316835282019290925260400190205481101561317d5782600660006001858154811061307457613074613cc8565b60009182526020808320909101546001600160a01b0316835282019290925260400190208054839081106130aa576130aa613cc8565b9060005260206000209060080201600501540361316b5760066000600184815481106130d8576130d8613cc8565b60009182526020808320909101546001600160a01b03168352820192909252604001902080548290811061310e5761310e613cc8565b60009182526020822060066008909202010180549161312c83613cf4565b909155505060405183815233907fb28cef1610af39b7e958d72ef4b669573b204b03351270bd94e46c8f38e7d3b89060200160405180910390a261317d565b8061317581613d0b565b915050613019565b508061318881613d0b565b91505061300c565b336000908152600360205260409020546001600160a01b03166131c55760405162461bcd60e51b81526004016104d190613bf2565b60005b6001548110156121595760005b60066000600184815481106131ec576131ec613cc8565b60009182526020808320909101546001600160a01b031683528201929092526040019020548110156133475784600660006001858154811061323057613230613cc8565b60009182526020808320909101546001600160a01b03168352820192909252604001902080548390811061326657613266613cc8565b90600052602060002090600802016005015403613335578383600660006001868154811061329657613296613cc8565b60009182526020808320909101546001600160a01b0316835282019290925260400190208054849081106132cc576132cc613cc8565b906000526020600020906008020160020191826132ea929190613fd1565b50336001600160a01b03167f0798da804108ca2036ce2509087a7fe84533575f173619f05fdf92af5e9020e18686866040516133289392919061408b565b60405180910390a2613347565b8061333f81613d0b565b9150506131d5565b508061335281613d0b565b9150506131c8565b6000816001600160a01b0316836001600160a01b031610156133bd576040516bffffffffffffffffffffffff19606085811b8216602084015284901b1660348201526048015b6040516020818303038152906040528051906020012090506133eb565b6040516bffffffffffffffffffffffff19606084811b8216602084015285901b1660348201526048016133a0565b92915050565b5080546133fd90613d24565b6000825580601f1061340d575050565b601f01602090049060005260206000209081019061342b9190613561565b50565b508054600082559060005260206000209081019061342b9190613561565b508054600082559060005260206000209081019061342b9190613576565b8280548282559060005260206000209081019282156134bf579160200282015b828111156134bf57825182546001600160a01b0319166001600160a01b0390911617825560209092019160019091019061348a565b506134cb929150613561565b5090565b8280548282559060005260206000209081019282156134bf5760005260206000209182015b828111156134bf5782548255916001019190600101906134f4565b828054828255906000526020600020908101928215613555579160200282015b8281111561355557825182906135459082613df5565b509160200191906001019061352f565b506134cb929150613576565b5b808211156134cb5760008155600101613562565b808211156134cb57600061358a82826133f1565b50600101613576565b80356001600160a01b03811681146135aa57600080fd5b919050565b6000602082840312156135c157600080fd5b6135ca82613593565b9392505050565b6000602082840312156135e357600080fd5b5035919050565b6000815180845260005b81811015613610576020818501810151868301820152016135f4565b506000602082860101526020601f19601f83011685010191505092915050565b60006020808301818452808551808352604092508286019150828160051b87010184880160005b838110156136aa57888303603f19018552815180516001600160a01b0316845287810151888501528601516060878501819052613696818601836135ea565b968901969450505090860190600101613657565b509098975050505050505050565b600082825180855260208086019550808260051b84010181860160005b8481101561370357601f198684030189526136f18383516135ea565b988401989250908301906001016136d5565b5090979650505050505050565b60006020808301818452808551808352604092508286019150828160051b87010184880160005b838110156136aa57888303603f19018552815180516001600160a01b0316845261010088820151818a87015261376f828701826135ea565b915050878201518582038987015261378782826135ea565b915050606080830151868303828801526137a183826135ea565b6080858101519089015260a0808601519089015260c0808601519089015260e0948501518882039589019590955292506137df9150829050836136b8565b968901969450505090860190600101613737565b60008083601f84011261380557600080fd5b50813567ffffffffffffffff81111561381d57600080fd5b60208301915083602082850101111561383557600080fd5b9250929050565b6000806020838503121561384f57600080fd5b823567ffffffffffffffff81111561386657600080fd5b613872858286016137f3565b90969095509350505050565b60008060006040848603121561389357600080fd5b833567ffffffffffffffff8111156138aa57600080fd5b6138b6868287016137f3565b909790965060209590950135949350505050565b60006020808301818452808551808352604092508286019150828160051b87010184880160005b838110156136aa57888303603f19018552815180516001600160a01b031684528781015160e08986018190529061392a828701826135ea565b838a0151878b0152606080850151908801526080808501519088015260a0808501519088015260c0938401519390960192909252505093860193908601906001016138f1565b6020808252825182820181905260009190848201906040850190845b818110156139b15783516001600160a01b03168352928401929184019160010161398c565b50909695505050505050565b6001600160a01b03891681526101006020808301829052600091906139e48483018c6135ea565b915083820360408501526139f8828b6135ea565b91508382036060850152613a0c828a6135ea565b91508760808501528660a08501528560c085015283820360e08501528185518084528284019150828160051b85010183880160005b83811015613a6f57601f19878403018552613a5d8383516135ea565b94860194925090850190600101613a41565b50909f9e505050505050505050505050505050565b6001600160a01b038816815260e060208201819052600090613aa8908301896135ea565b6040830197909752506060810194909452608084019290925260a083015260c09091015292915050565b600080600060408486031215613ae757600080fd5b613af084613593565b9250602084013567ffffffffffffffff811115613b0c57600080fd5b613b18868287016137f3565b9497909650939450505050565b60008060008060008060608789031215613b3e57600080fd5b863567ffffffffffffffff80821115613b5657600080fd5b613b628a838b016137f3565b90985096506020890135915080821115613b7b57600080fd5b613b878a838b016137f3565b90965094506040890135915080821115613ba057600080fd5b50613bad89828a016137f3565b979a9699509497509295939492505050565b600080600060408486031215613bd457600080fd5b83359250602084013567ffffffffffffffff811115613b0c57600080fd5b60208082526035908201527f4552524f523a203c4d7573742063726561746520612070726f66696c6520746f604082015274103832b93337b936903a3434b99030b1ba34b7b71f60591b606082015260800190565b6020808252601f908201527f4552524f523a203c50726f66696c6520646f6573206e6f742065786973743e00604082015260600190565b6020808252602a908201527f4552524f52203c596f752063616e6e6f7420666f6c6c6f772f756e666f6c6c6f6040820152693b903cb7bab939b2b63360b11b606082015260800190565b634e487b7160e01b600052603260045260246000fd5b634e487b7160e01b600052601160045260246000fd5b600081613d0357613d03613cde565b506000190190565b600060018201613d1d57613d1d613cde565b5060010190565b600181811c90821680613d3857607f821691505b6020821081036118e757634e487b7160e01b600052602260045260246000fd5b808201808211156133eb576133eb613cde565b634e487b7160e01b600052604160045260246000fd5b8183823760009101908152919050565b601f821115613ddb57600081815260208120601f850160051c81016020861015613db85750805b601f850160051c820191505b81811015613dd757828155600101613dc4565b5050505b505050565b600019600383901b1c191660019190911b1790565b815167ffffffffffffffff811115613e0f57613e0f613d6b565b613e2381613e1d8454613d24565b84613d91565b602080601f831160018114613e525760008415613e405750858301515b613e4a8582613de0565b865550613dd7565b600085815260208120601f198616915b82811015613e8157888601518255948401946001909101908401613e62565b5085821015613e9f5787850151600019600388901b60f8161c191681555b5050505050600190811b01905550565b81835281816020850137506000828201602090810191909152601f909101601f19169091010190565b604081526000613eec604083018587613eaf565b9050826020830152949350505050565b818103613f07575050565b613f118254613d24565b67ffffffffffffffff811115613f2957613f29613d6b565b613f3781613e1d8454613d24565b6000601f821160018114613f655760008315613f535750848201545b613f5d8482613de0565b855550613fca565b600085815260209020601f19841690600086815260209020845b83811015613f9f5782860154825560019586019590910190602001613f7f565b5085831015613fbd5781850154600019600388901b60f8161c191681555b50505060018360011b0184555b5050505050565b67ffffffffffffffff831115613fe957613fe9613d6b565b613ffd83613ff78354613d24565b83613d91565b6000601f84116001811461402b57600085156140195750838201355b6140238682613de0565b845550613fca565b600083815260209020601f19861690835b8281101561405c578685013582556020948501946001909201910161403c565b50868210156140795760001960f88860031b161c19848701351681555b505060018560011b0183555050505050565b8381526040602082015260006140a5604083018486613eaf565b95945050505050565b6020815260006140c2602083018486613eaf565b94935050505056fea26469706673582212207b35849ab6dc30aa2539549ff3ee03b0164e5176f41cba8064ac9a03ff64a84b64736f6c63430008140033",
  "linkReferences": {},
  "deployedLinkReferences": {}
}